:10000000433C3D3A3D3A0000000203000300F7394B
:100010006EE764E70000000010001400FFFF00031B
:1000200040001D3A1D3A0002213A00002000000065
:1000300000000000FB3F00C00000000000000000C6
:100040000000010003000A00FF3F00000A00FF3F1C
:1000500000000A00FF3F00000A00FF3F00000A0006
:10006000FF3F00000A00FF3F00000A00FF3F0000C2
:1000700003001D3A0300F7390000000000000000F3
:10008000120B66A05CEA0000E93902ABF6FC36F21E
:1000900075FEF7F79CF30000010076EB8CE700009B
:1000A0000000000000000000000000000000000050
:1000B0000000000000000000000000000000000040
:1000C0000000000000000000000000000000000030
:1000D0000000000000000000000000000000000020
:1000E0000000000000000000000000000000000010
:1000F0000000000000000000000000000000000000
:1001000000000000000000000000000000000000EF
:1001100000000000000000000000000000000000DF
:1001200000000000000000000000000000000000CF
:1001300000000000000000000000000000000000BF
:1001400000000000000000000000000000000000AF
:10015000000000000000000000000000000000009F
:10016000000000000000000000000000000000008F
:10017000000000000000000000000000000000007F
:10018000000000000000000000000000000000006F
:10019000000000000000000000000000000000005F
:1001A000000000000000000000000000000000004F
:1001B000000000000000000000000000000000003F
:1001C000000000000000000000000000000000002F
:1001D000000000000000000000000000000000001F
:1001E00000000000000000000000A2D5A2D558CAFF
:1001F00001090504F77839342D3A4DC88DE660C001
:10020000783865402043303030202D205C20546108
:100210006C6920466F7274682032414D202831305D
:100220003020697320737061636520616674657244
:1002300020637029732074686F7567682969746515
:1002400072616C20206321202B202B726321205CA3
:1002500020782079206F722062675F636F6C6F7205
:10026000725F6D61705F74656D70293020632C2042
:10027000343020632C203020632C20343020632C39
:10028000203120632C203020632C206120632C201F
:10029000323120632C203120632C20323020632C1B
:1002A000203820632C20323120632C203120632C15
:1002B000203020632C203620632C2C3120632C002E
:1002C000000000000000000000000000000000002E
:1002D000000000000000000000000000000000001E
:1002E000000000000000000000000000000000000E
:1002F00000000000000000000000000000000000FE
:100300000000000000073D3A000040A1A7F57BF087
:1003100016FEFDF62DF300000000000000000200B4
:1003200007020000000000000004000000000000C0
:1003300000000000000000000000000000000000BD
:1003400000000000000000000000000000000000AD
:10035000000000000000000000000000000000009D
:10036000000000000000000000000000000000008D
:10037000000000000000000000000000000000007D
:10038000000000000000000000000000000000006D
:10039000000000000000000000000000000000005D
:1003A000000000000000000000000000000000004D
:1003B000000000000000000000000000000000003D
:1003C000000000000000000000000000000000002D
:1003D000000000000000000000000000000000001D
:1003E000000000000000000000000000000000000D
:1003F00000000000000000000000000000000000FD
:10040000022882E30A0410047830E8E8E8E8E8E823
:1004100060022800041B0463047831CACAA902954B
:1004200000740116008A7500A8B902009500B9038E
:10043000009501CACAA9029500740116008A7500C8
:10044000A8B902009500B903009501CACAA902958E
:1004500000740116008A7500A8B902009500B9035E
:1004600000950160022911046E0491047832CACA11
:100470006895006895012015CEB50148B50048E89B
:10048000E8B50148B50048E8E8B50148B50048E8D6
:10049000E860022964049C04D7047833CACA6895CA
:1004A00000689501B500B40295029400B501B4034B
:1004B00095039401B50148B50048E8E82015CEB58C
:1004C0000148B50048E8E8B50148B50048E8E8B596
:1004D0000148B50048E8E86002299204E2040505F5
:1004E0007834CACA689500689501CACA68950068D8
:1004F0009501CACA68950068950120B5D1B5014833
:10050000B50048E8E8600229D80410054B057835A5
:10051000CACA689500689501CACA689500689501BD
:10052000CACA68950068950120B5D1CACA68950005
:10053000689501B500B40295029400B501B4039525
:10054000039401B50148B50048E8E86002280605B3
:100550005605A8057836CACAB5029500B5039501B7
:10056000CACAB5029500B5039501B5001501F0049E
:10057000A9008002A9FF95009501B500B40295027B
:100580009400B501B40395039401A000B5013005B2
:100590001500F001889895009501B50015029502A7
:1005A000B50115039503E8E86002284C05B305E49E
:1005B000057837CACAB5029500B5039501A1009523
:1005C00000740120BEE6F600D002F601B500B402C8
:1005D00095029400B501B40395039401B50281001E
:1005E000E8E8E8E8600228A905EF051F067838CAA0
:1005F000CAB5029500B5039501A10095007401B537
:1006000000D002D601D600B500B40295029400B520
:1006100001B40395039401B5028100E8E8E8E860BD
:100620000228E5052A065F067839CACAB502950090
:10063000B5039501A100A8F600D002F601A100952E
:1006400001940020BEE6F600D002F601B500B40227
:1006500095029400B501B40395039401207FD56001
:10066000022820066A069E067861CACAB50295006D
:10067000B5039501A100A8F600D002F601A10095EE
:10068000019400B500D002D601D600B500B40295A1
:10069000029400B501B40395039401207FD5600254
:1006A000286006A906B40678622048CCE4FFA100C1
:1006B000950074016002289F06BF06C40678632077
:1006C000C0E503000228B506CE06D3067864207A7A
:1006D000E502000228C406DD06E2067865207AE518
:1006E00003000228D306EC06F1067866207AE504BA
:1006F000000228E206FB0600077867207AE505007D
:100700000228F1060A070F077868207AE50600023A
:1007100028000719071E077869207AE507000228D4
:100720000F0728072D07786A20C0E5200002281E41
:100730000737073F07786B2048CCDDFF204FC860A4
:1007400002282D074A075507786C2044C7A90A20BC
:10075000D1C7203707600228400760076D07786D12
:100760002048CCE1FFB5028100E8E8E8E860022813
:10077000560778078507786E2048CCE2FFB50281DE
:1007800000E8E8E8E86002286E079007B607786F8F
:10079000CACAA90195007401206007CACAA90295B6
:1007A000007401207807CACAA90195007401204885
:1007B000CC8600207FD56002288607C107DF077836
:1007C000702048CC04002060072048CC0500207829
:1007D00007CACA740074012048CC8600207FD56007
:1007E0000228B707EA07390878712048CC8600A1AB
:1007F00000A8F600D002F601A10095019400B50012
:100800001501F004A9008002A9FF9500950120932D
:10081000CA390820900720CE0620BF06A100A8F6FE
:1008200000D002F601A10095019400CACA740074B8
:10083000012048CC0300200AD2600228E0074408C7
:10084000910878722048CC8600A100A8F600D0025A
:10085000F601A10095019400A000B5001501F0017A
:100860008898950095012093CA910820BF06A100A1
:10087000A8F600D002F601A10095019400CACA743E
:10088000007401CACAA90295007401200AD220C1CD
:10089000076002283A089C0892097873CACAA50022
:1008A0009500A50195012048CC9600A100A8F6006E
:1008B000D002F601A10095019400CACA7400740127
:1008C000207DCF20E9C72093CAD8082088C72048B8
:1008D000CC880020B6C78F09CACAA9019500740147
:1008E000207DCF20E9C72093CAF8082088C7204878
:1008F000CC8A0020B6C78F09CACAA9029500740124
:10090000207DCF20E9C72093CA18092088C7204836
:10091000CC8C0020B6C78F092048CC0300207DCFA7
:1009200020E9C72093CA35092088C72048CC8E000B
:1009300020B6C78F092048CC0400207DCF20E9C70E
:100940002093CA52092088C72048CC900020B6C7FF
:100950008F092048CC0500207DCF20E9C72093CA0D
:100960006F092088C72048CC920020B6C78F092085
:1009700048CC0600207DCF20E9C72093CA8C0920EF
:1009800088C72048CC940020B6C78F092088C7208C
:100990007FD560022892089D09D9097874209C08A7
:1009A0002048CC8800A100A8F600D002F601A100E2
:1009B00095019400CACA74007401207FD5CACA7414
:1009C000007401A004B500911EE8E8CACA7400745E
:1009D000012048CC9600207FD56002289309E409C5
:1009E0001F0A7875209C082048CC8A00A100A8F630
:1009F00000D002F601A10095019400CACA740074E7
:100A000001207FD520CE06A004B500911EE8E8CADB
:100A1000CAA901950074012048CC9600207FD560BA
:100A20000228DA092A0A970A78762048CCE3FFB52B
:100A3000028100E8E8E8E82048CC8600A100A8F69A
:100A400000D002F601A10095019400B5001501F057
:100A500004A9008002A9FF950095012093CA760A97
:100A6000CACA74007401CACAA90295007401200A96
:100A7000D220B6C7970A20CE06B500B402950294DC
:100A800000B501B40395039401CACA74007401202F
:100A900048CC0300200AD2600228200AA20AED0AEC
:100AA0007877209C08A100A8F600D002F601A100EA
:100AB00095019400CACA74007401207FD52048CCE7
:100AC0009600207FD5CACAB5029500B503950120CE
:100AD000BF06207FD5CACAB5029500B5039501208F
:100AE000B5D1202A0AA004B500911EE8E8600228CA
:100AF000980AF80A100B78782048CC030020DD060D
:100B0000CACAA902950074012048CC8C0020A20A10
:100B1000600228EE0A1B0B300B78792048CC0600C7
:100B200020EC062048CC03002048CC8E0020A20AEE
:100B3000600228110B3B0B500B787A2048CC070041
:100B400020FB062048CC04002048CC900020A20ABC
:100B5000600328310B5C0B710B7831302048CC08D6
:100B600000200A072048CC05002048CC920020A293
:100B70000A600328510B7D0B920B7831312048CC51
:100B800009002019072048CC06002048CC940020FA
:100B9000A20A600328720B9E0BA90B78313220DD6C
:100BA000062048CC0300202A0A600328930BB50BCB
:100BB000C00B78313320EC062048CC0600202A0AEE
:100BC000600328AA0BCC0BD70B78313420FB06200E
:100BD00048CC0700202A0A600328C10BE30BEE0B68
:100BE000783135200A072048CC0800202A0A600303
:100BF00028D80BFA0B050C7831362019072048CC81
:100C00000900202A0A600328EF0B110C140C78311C
:100C10003920C0E5000000000000000000000000D6
:100C200000000000000000000000000000000000C4
:100C300000000000000000000000000000000000B4
:100C400000000000000000000000000000000000A4
:100C50000000000000000000000000000000000094
:100C60000000000000000000000000000000000084
:100C70000000000000000000000000000000000074
:100C80000000000000000000000000000000000064
:100C90000000000000000000000000000000000054
:100CA0000000000000000000000000000000000044
:100CB0000000000000000000000000000000000034
:100CC000000000000000000000000328060CD50C06
:100CD000D80C78316120C0E5000000000000000061
:100CE0000000000000000000000000000000000004
:100CF00000000000000000000000000000000000F4
:100D000000000000000000000000000000000000E3
:100D100000000000000000000000000000000000D3
:100D200000000000000000000000000000000000C3
:100D300000000000000000000000000000000000B3
:100D400000000000000000000000000000000000A3
:100D50000000000000000000000000000000000093
:100D60000000000000000000000000000000000083
:100D70000000000000000000000000000000000073
:100D80000000000000000000000000000000000063
:100D900000000328CA0C9D0DA00D78316220C0E52B
:100DA0000000000000000000000000000000000043
:100DB0000000000000000000000000000000000033
:100DC0000000000000000000000000000000000023
:100DD0000000000000000000000000000000000013
:100DE0000000000000000000000000000000000003
:100DF00000000000000000000000000000000000F3
:100E000000000000000000000000000000000000E2
:100E100000000000000000000000000000000000D2
:100E200000000000000000000000000000000000C2
:100E300000000000000000000000000000000000B2
:100E400000000000000000000000000000000000A2
:100E50000000000000000328920D610E640E78313E
:100E60006320C0E50000000000000000000000005A
:100E70000000000000000000000000000000000072
:100E80000000000000000000000000000000000062
:100E90000000000000000000000000000000000052
:100EA0000000000000000000000000000000000042
:100EB0000000000000000000000000000000000032
:100EC0000000000000000000000000000000000022
:100ED0000000000000000000000000000000000012
:100EE0000000000000000000000000000000000002
:100EF00000000000000000000000000000000000F2
:100F000000000000000000000000000000000000E1
:100F100000000000000000000000000000000328A6
:100F2000560E290F2C0F78316420C0E50000000018
:100F300000000000000000000000000000000000B1
:100F400000000000000000000000000000000000A1
:100F50000000000000000000000000000000000091
:100F60000000000000000000000000000000000081
:100F70000000000000000000000000000000000071
:100F80000000000000000000000000000000000061
:100F90000000000000000000000000000000000051
:100FA0000000000000000000000000000000000041
:100FB0000000000000000000000000000000000031
:100FC0000000000000000000000000000000000021
:100FD0000000000000000000000000000000000011
:100FE000000003281E0FED0FF00F78316520C0E5DB
:100FF00000000000000000000000000000000000F1
:1010000000000000000000000000000000000000E0
:1010100000000000000000000000000000000000D0
:1010200000000000000000000000000000000000C0
:1010300000000000000000000000000000000000B0
:1010400000000000000000000000000000000000A0
:101050000000000000000000000000000000000090
:101060000000000000000000000000000000000080
:101070000000000000000000000000000000000070
:101080000000000000000000000000000000000060
:101090000000000000000000000000000000000050
:1010A0000000000000000328E20FB110B4107831F6
:1010B0006620C0E500000000000000000000000005
:1010C0000000000000000000000000000000000020
:1010D0000000000000000000000000000000000010
:1010E0000000000000000000000000000000000000
:1010F00000000000000000000000000000000000F0
:1012D00000000000000000000000000000000328E3
:1012E000A610E912EC1278316720C0E5000000007A
:1012F00000000000000000000000000000000000EE
:1013000000000000000000000000000000000000DD
:1013100000000000000000000000000000000000CD
:1013200000000000000000000000000000000000BD
:101510000000000000000328DE1221152415783198
:101520006820C0E50000000000000000000000008E
:1015300000000000000000000000000000000000AB
:10154000000000000000000000000000000000009B
:10155000000000000000000000000000000000008B
:10156000000000000000000000000000000000007B
:10174000000000000000000000000000000003286E
:10175000161559175C1778316920C0E500000000A4
:101760000000000000000000000000000000000079
:101770000000000000000000000000000000000069
:101780000000000000000000000000000000000059
:101790000000000000000000000000000000000049
:1017A0000000000000000000000000000000000039
:1017B0000000000000000000000000000000000029
:1017C0000000000000000000000000000000000019
:1017D0000000000000000000000000000000000009
:1017E00000000000000000000000000000000000F9
:1017F00000000000000000000000000000000000E9
:1018000000000000000000000000000000000000D8
:1018100000000000000000000000000000000000C8
:1018200000000000000000000000000000000000B8
:1018300000000000000000000000000000000000A8
:101840000000000000000000000000000000000098
:101850000000000000000000000000000000000088
:101860000000000000000000000000000000000078
:101870000000000000000000000000000000000068
:101880000000000000000000000000000000000058
:101890000000000000000000000000000000000048
:1018A0000000000000000000000000000000000038
:1018B0000000000000000000000000000000000028
:1018C0000000000000000000000000000000000018
:1018D0000000000000000000000000000000000008
:1018E00000000000000000000000000000000000F8
:1018F00000000000000000000000000000000000E8
:1019000000000000000000000000000000000000D7
:1019100000000000000000000000000000000000C7
:1019200000000000000000000000000000000000B7
:1019300000000000000000000000000000000000A7
:101940000000000000000000000000000000000097
:10195000000000000000000000000000000003285C
:101960004E1769196C1978316A20C0E50000000033
:101970000000000000000000000000000000000067
:101980000000000000000000000000000000000057
:101990000000000000000000000000000000000047
:1019A0000000000000000000000000000000000037
:1019B0000000000000000000000000000000000027
:1019C0000000000000000000000000000000000017
:1019D0000000000000000000000000000000000007
:1019E00000000000000000000000000000000000F7
:1019F00000000000000000000000000000000000E7
:101A000000000000000000000000000000000000D6
:101A100000000000000000000000000000000000C6
:101A200000000000000000000000000000000000B6
:101A300000000000000000000000000000000000A6
:101A40000000000000000000000000000000000096
:101A50000000000000000000000000000000000086
:101A60000000000000000000000000000000000076
:101A70000000000000000000000000000000000066
:101A80000000000000000000000000000000000056
:101A90000000000000000000000000000000000046
:101AA0000000000000000000000000000000000036
:101AB0000000000000000000000000000000000026
:101AC0000000000000000000000000000000000016
:101AD0000000000000000000000000000000000006
:101AE00000000000000000000000000000000000F6
:101AF00000000000000000000000000000000000E6
:101B000000000000000000000000000000000000D5
:101B100000000000000000000000000000000000C5
:101B200000000000000000000000000000000000B5
:101B300000000000000000000000000000000000A5
:101B40000000000000000000000000000000000095
:101B50000000000000000000000000000000000085
:101B6000000000000000000000000000000003284A
:101B70005E19791B7C1B78316B20C0E500000000EA
:101B80000000000000000000000000000000000055
:101B90000000000000000000000000000000000045
:101BA0000000000000000000000000000000000035
:101BB0000000000000000000000000000000000025
:101BC0000000000000000000000000000000000015
:101BD0000000000000000000000000000000000005
:101BE00000000000000000000000000000000000F5
:101BF00000000000000000000000000000000000E5
:101C000000000000000000000000000000000000D4
:101C100000000000000000000000000000000000C4
:101C20000000000000000000000000000000032889
:101C30006E1B391C3C1C78316C20C0E50000000094
:101C40000000000000000000000000000000000094
:101C50000000000000000000000000000000000084
:101C60000000000000000000000000000000000074
:101C70000000000000000000000000000000000064
:101C80000000000000000003282E1C921C951C7808
:101C9000317620C0E5202000000000000000000098
:101CA00000000000000000000FF00FF00FF00FF038
:101CB0000C0000300C0000300C0000300C00003034
:101CC0000C0000300C00003000000000000000009C
:101CD0000000000000000000000000000000000004
:101CE00000000000000000000C0000300C0000307C
:101CF0000C0000300C0000300C0000300C000030F4
:101D00000FF00FF00FF00FF00000000000000000D7
:101D100000000000000000000328871C231D261D72
:101D200078317920C0E518180000FF0000FF003F5F
:101D3000FFFC3FFFFC3FFFFC3FFFFC3FFFFC3FFF82
:101D4000FCFFFFFFFFFFFFFFFFFFFFFFFFFFFFFFA6
:101D5000FFFFFFFFFFFFFFFFFF3FFFFC3FFFFC3FD9
:101D6000FFFC3FFFFC3FFFFC3FFFFC00FF0000FFCC
:101D7000000328181D7C1D7F1D78326F20C0E520D0
:101D80002020400020400020400020400020400053
:101D90002040002040002040002040002040002043
:101DA0004000204000204000204000204000204013
:101DB0000020400020400020400020400020400043
:101DC0002040000B4004001140000B4001000221A4
:101DD00001000240030001400200094000074004E6
:101DE0000003210400012105000840000640010015
:101DF00008210200062102000740000540010006FC
:101E000021010208210102022102000640000540D2
:101E100001000121012011210100064000054001BF
:101E2000000A2101200821010006400005400800A9
:101E3000062107000640000C4007000D400020402E
:101E4000000328711D4C1E4F1E78327020C0E5140F
:101E50000CD80CA00D640E2C0FF00FB410EC122453
:101E6000155C176C197C1B3C1C0E40CE406E411E4D
:101E7000429C42084318452847604915ECC1EDC80B
:101E8000EB7F1D951C84EB84EB261D84EBC8EB2AAD
:101E9000ECF9EB5BEC8CECBDEC84EBDDEB36EC8F22
:101EA000ECE8EC41ED9AEDF3ED4CEEA5EEFEEE57CD
:101EB000EFB0EF09F062F00228411EC11EC41E7689
:101EC0003120C0E50000000000000000000000001C
:101ED0000000000000000000000000000000000002
:101EE00000000000000000000000000000000000F2
:101EF00000000000000000000000000000000000E2
:101F000000000000000000000000000000000000D1
:101F10000000000000000000000000000000032896
:101F2000B71E291F2E1F78337120C0E5000003283B
:101F30001E1F391F3E1F78337220C0E500000328A2
:101F40002E1F491F4E1F78337320C0E50000032861
:101F50003E1F591F5E1F78337420C0E50000032820
:101F60004E1F691F6E1F78337520C0E500000328DF
:101F70005E1F791F7C1F78337620C0E500000000CB
:101F80000003286E1F8C1F8F1F78337720C0E50059
:101F90000000000000000000000000000000000041
:101FA0000000000000000000000000000003288185
:101FB0001FB81FBB1F78337820C0E5000000000069
:101FC000000000000000000000000328AD1FD51F26
:101FD000D81F78346320C0E5000000000000000036
:101FE00000000000000000000000000000000000F1
:101FF00000000000000000000000000000000000E1
:1020000000000000000000000000000000000000D0
:1020100000000000000000000000000000000000C0
:1020200000000000000000000000000000000000B0
:1020300000000000000000000000000000000000A0
:102040000000000000000000000000000000000090
:102050000000000000000000000000000000000080
:102060000000000000000000000000000000000070
:102070000000000000000000000000000000000060
:102080000000000000000000000000000000000050
:102090000000000000000000000000000000000040
:1020A0000000000000000000000000000000000030
:1020B0000000000000000000000000000000000020
:1020C0000000000000000000000000000000000010
:1020D00000000000000000000328CA1FE320E620E3
:1020E00078346420C0E5000000000000000000001B
:1020F00000000000000000000000000000000000E0
:1021000000000000000000000000000000000000CF
:1021100000000000000000000000000000000000BF
:1021200000000000000000000000000000000000AF
:10213000000000000000000000000000000000009F
:10214000000000000000000000000000000000008F
:10215000000000000000000000000000000000007F
:10216000000000000000000000000000000000006F
:10217000000000000000000000000000000000005F
:10218000000000000000000000000000000000004F
:10219000000000000000000000000000000000003F
:1021A000000000000000000000000000000000002F
:1021B000000000000000000000000000000000001F
:1021C000000000000000000000000000000000000F
:1021D00000000000000000000000000000000000FF
:1021E0000000000000000328D820F121F4217834F9
:1021F0006520C0E5000000000000000000000000B5
:1022000000000000000000000000000000000000CE
:1022100000000000000000000000000000000000BE
:1022200000000000000000000000000000000000AE
:10223000000000000000000000000000000000009E
:10224000000000000000000000000000000000008E
:10225000000000000000000000000000000000007E
:10226000000000000000000000000000000000006E
:10227000000000000000000000000000000000005E
:10228000000000000000000000000000000000004E
:10229000000000000000000000000000000000003E
:1022A000000000000000000000000000000000002E
:1022B000000000000000000000000000000000001E
:1022C000000000000000000000000000000000000E
:1022D00000000000000000000000000000000000FE
:1022E00000000000000000000000000000000000EE
:1022F000000000000328E621FF2202237834662034
:10230000C0E5000000000000000000000000000028
:10231000000000000000000000000328F422252334
:10232000E2237834672015CE209C042048CC00019D
:102330002057D8E8E818B50075029502B501750375
:102340009503E8E82048CC004018B50075029502D6
:10235000B50175039503E8E820E204B500B40295E1
:10236000029400B501B40395039401CACA689500AC
:10237000689501CACA74007401A92348A9DE4838C7
:10238000A900F5029502A980F503950348B5024816
:1023900018B50075029500B501750348B50048E809
:1023A000E8E8E8201B042005C820B5D12048CC006F
:1023B0000118B50075029502B50175039503E8E8AB
:1023C0002015CE2041CF18687500A8B8687501485F
:1023D0009848E8E870034CA3236868686868682038
:1023E0000A046003281A23EE23162478346820BEDA
:1023F000E616003601204C1E18B50075029502B590
:102400000175039503E8E8A100A8F600D002F601E3
:10241000A10095019400600328E323222477247807
:102420003469CACAB5029500B5039501A1009500AB
:102430007401B500B40295029400B501B40395038C
:10244000940120BEE6F600D002F601CACAB5029594
:1024500000B5039501A10095007401B500B4029583
:10246000029400B501B4039503940120BEE6F60082
:10247000D002F6012015CE60032817248324F1240E
:1024800078346ACACAB5049500B5059501A10095CE
:10249000007401CACAB5029500B5039501B501489B
:1024A000B50048E8E8CACAB5049500B5059501B578
:1024B000028100E8E8E8E820BEE6F600D002F60176
:1024C000B500B40295029400B501B40395039401DC
:1024D00020BEE6F600D002F601B500B402950294E3
:1024E00000B501B40395039401CACA6895006895C4
:1024F000016003287824FD24E82578346B20EE233E
:10250000B50148B50048E8E820EE23202224B500B4
:10251000B40295029400B501B40395039401CACAAC
:1025200068950068950148B50048B5028100E8E863
:10253000E8E8CACAB5029500B5039501CACA68950C
:102540000068950148B5004820BEE6F600D002F6C6
:1025500001B5028100E8E8E8E8CACA689500689514
:1025600001CACAA9029500740118B5007502950246
:10257000B50175039503E8E8B500B402950294002F
:10258000B501B40395039401CACA74007401A92566
:1025900048A9E34838A900F5029502A980F50395FA
:1025A0000348B5024818B50075029500B5017503DA
:1025B00048B50048E8E8E8E82083242093CAC82505
:1025C000208324E8E84CB8252041CF18687500A87E
:1025D000B8687501489848E8E870034CB825686801
:1025E00068686868E8E8E8E8600328F224F4253AB7
:1025F0002678346D20EE232015CE2048CC00012013
:1026000057D8E8E818B50075029502B5017503952D
:1026100003E8E82048CC004018B50075029502B5E3
:102620000175039503E8E8B500B40295029400B57E
:1026300001B40395039401202224600328E9254670
:10264000260D2878346E20F425CACA74007401A9B6
:102650002848A9094838A900F5029502A980F50380
:10266000950348B5024818B50075029500B5017587
:102670000348B50048E8E8E8E8CACAB5049500B5DB
:10268000059501A100950074012093CAAF2720157C
:10269000CECACAB5029500B5039501A10095007494
:1026A00001B50148B50048E8E820BEE6F600D002D2
:1026B000F601CACAB5029500B5039501A1009500BF
:1026C0007401B50148B50048E8E820BEE6F600D040
:1026D00002F6012015CE20E204B500B40295029462
:1026E00000B501B40395039401CACAB5029500B5BB
:1026F0000395012048CC400020E9C72093CA192740
:10270000E8E818B50075029502B50175039503E870
:10271000E82015CE20B6C7AC27B500B402950294C8
:1027200000B501B403950394012015CEB500B402A1
:1027300095029400B501B4039503940120B5D1CA64
:10274000CA74007401A92748A99E4838A900F50257
:102750009502A980F503950348B5024818B50075A0
:10276000029500B501750348B50048E8E8E8E8209F
:1027700019D7B5028100E8E8E8E820BEE6F600D007
:1027800002F6012041CF18687500A8B868750148A5
:102790009848E8E870034C6F27686868686868B50F
:1027A000009502B5019503E8E82015CE4C79262066
:1027B000B5D1CACAB5049500B505950138B502F57D
:1027C000009502B503F5019503E8E82048CC000127
:1027D00018B50075029502B50175039503E8E82068
:1027E000B5D120BEE6F600D002F60120B5D12041D9
:1027F000CF18687500A8B8687501489848E8E8706F
:10280000034C7926686868686868200A04600328B1
:102810003B2619288B2878346FA10095007401CAD3
:10282000CAB5029500B50395012048CC400020F7B9
:10283000CD2093CA602820B5D1B500B4029502948A
:1028400000B501B40395039401CACAB5049500B557
:10285000059501B5028100E8E8E8E820B6C77228CE
:10286000E8E8B500B40295029400B501B4039503FD
:10287000940120BEE6F600D002F601B500B4029540
:10288000029400B501B403950394016003280E2857
:102890009728C128783470A100A8F600D002F6016C
:1028A000A10095019400CACAB5029500B50395012F
:1028B0002093CABD28204FC820B6C7C128E8E8E841
:1028C000E86003288C28CD282929783471CACAB534
:1028D000029500B5039501B50148B50048E8E82028
:1028E00048CC8000B50035029502B501350395034B
:1028F000E8E82093CA01292048CCF01E20B6C7067C
:10290000292048CCF11E201928CACA68950068956C
:1029100001CACAA90195007401B500290FF008A8E1
:102920001602360388D0F9E8E8600328C228352962
:10293000E42B7834722015CE2048CCF11EB50281EC
:1029400000E8E8E8E82048CCF01EB5028100E8E89D
:10295000E8E820F4252048CCF31EB5028100E8E821
:10296000E8E82048CCF21EB5028100E8E8E8E8CAB1
:10297000CAB5029500B5039501A100950074012028
:1029800048CCF41EB5028100E8E8E8E820BEE6F68F
:1029900000D002F6012048CCF21EA100950074017F
:1029A000CACAB5029500B50395012048CC0800209D
:1029B00021D4B500B40295029400B501B403950387
:1029C00094012048CC08002026D4E8E8A000B500F7
:1029D0001501F0018898950095012093CAE82920F7
:1029E000BEE6F600D002F6012048CCF31EA1009509
:1029F000007401CACA74007401A92B48A9E04838C0
:102A0000A900F5029502A980F503950348B502488F
:102A100018B50075029500B501750348B50048E882
:102A2000E8E8E82048CCF21EA10095007401204897
:102A3000CCF51EB5028100E8E8E8E8CACA862ABAE1
:102A400038BD0101FD0301A8BD0201FD0401A62A54
:102A5000950194002048CC131F209728CACAB502BC
:102A60009500B5039501B50148B50048E8E8CACA24
:102A700074007401A92B48A9884838A900F502956B
:102A800002A980F503950348B5024818B500750200
:102A90009500B501750348B50048E8E8E8E8CACAFA
:102AA000B5029500B503950120BEE6F600D002F60A
:102AB00001B500B40295029400B501B403950394E6
:102AC00001A100950074012048CC0800CACA740016
:102AD0007401A92B48A96A4838A900F5029502A9F2
:102AE00080F503950348B5024818B50075029500B6
:102AF000B501750348B50048E8E8E8E82048CC157A
:102B00001F2097282048CCF51EA10095007401B520
:102B100000D002D601D600CACAB5029500B5039509
:102B200001B5001501F004A9008002A9FF950095E8
:102B3000012093CA422BE8E8686868686020B6C73D
:102B40004F2B2048CCF51EB5028100E8E8E8E820CC
:102B500041CF18687500A8B8687501489848E8E83A
:102B600070034CFC2A686868686868E8E82041CF10
:102B700018687500A8B8687501489848E8E87003B7
:102B80004C9E2A686868686868CACA689500689533
:102B90000120B5D12048CC000118B500750295027E
:102BA000B50175039503E8E82048CCF21EA1009515
:102BB00000740138B502F5009502B503F5019503DF
:102BC000E8E82015CE2041CF18687500A8B86875D0
:102BD00001489848E8E870034C232A6868686868E8
:102BE00068200A046003282A29F02B0E2C783473FD
:102BF000CACA740074012048CC131F207FD5204816
:102C0000CCCD282048CC151F207FD5203529600346
:102C100028E52B1A2C892D783538CACAA9019500C8
:102C200074012048CCFF1EB5028100E8E8E8E8CA3C
:102C3000CA740074012048CC001FB5028100E8E886
:102C4000E8E82048CC30002048CCFC1EB5028100CA
:102C5000E8E8E8E82048CCFC1EB500B402950294F0
:102C600000B501B403950394012048CC64002019F9
:102C7000D72019D7A00020E5E5F00310018898E8D7
:102C8000E8950095012015CE20E9C7B500150295FD
:102C900002B50115039503E8E82093CAF32C20EE52
:102CA000D638B502F5009502B503F5019503E8E8BD
:102CB00020B5D1CACAB5029500B503950120B30568
:102CC000CACAA901950074012048CC001FB5028131
:102CD00000E8E8E8E82015CEB500B40295029400BB
:102CE000B501B40395039401CACA7400740120B6F7
:102CF000C7762D2048CC0A002021D4CACAB5029537
:102D000000B5039501B5001501F004A9008002A9E2
:102D1000FF950095012093CA242D2048CCFFFF2069
:102D2000B6C7762D2048CC001FA10095007401A0E5
:102D300000B5001501F0018898950095012093CA0F
:102D4000702D20B5D120BEE6F600D002F601204855
:102D5000CC3000CACAB5049500B5059501B502810D
:102D600000E8E8E8E82015CE2048CCFF1E20B30597
:102D7000CACA740074012093CA6E2C200A04204829
:102D8000CCFF1EA100950074016003280F2C952D27
:102D90006E2F7835392048CC200038B502F50095E3
:102DA00002B503F5019503E8E82048CC0300B5001F
:102DB000290FF008A81602360388D0F9E8E8204861
:102DC000CC9C00A100A8F600D002F601A10095015C
:102DD000940018B50075029502B50175039503E8D6
:102DE000E82048CC0800CACA74007401A92F48A979
:102DF000574838A900F5029502A980F503950348C4
:102E0000B5024818B50075029500B501750348B5BF
:102E10000048E8E8E8E8CACAB5029500B50395019C
:102E2000A100950074012048CC0300B500290FF0E3
:102E300008A85603760288D0F9E8E820B5D1B50095
:102E4000B40295029400B501B4039503940120489F
:102E5000CC0600CACA74007401A92F48A90C4838CE
:102E6000A900F5029502A980F503950348B502482B
:102E700018B50075029500B501750348B50048E81E
:102E8000E8E8E8CACAB5029500B5039501CACAA91F
:102E90000195007401B50035029502B50135039521
:102EA00003E8E82093CAB22E2048CCF61E20B6C70D
:102EB000B72E2048CCF71EA1009500740120B5D193
:102EC0002019D7B5028100E8E8E8E820BEE6F60060
:102ED000D002F6012015CEE8E8CACAA9019500740F
:102EE00001B500290FF008A85603760288D0F9E84A
:102EF000E82041CF18687500A8B86875014898485F
:102F0000E8E870034C832E686868686868E8E82021
:102F100048CCFA0018B50075029502B50175039505
:102F200003E8E8B500B40295029400B501B4039536
:102F300003940120BEE6F600D002F6012041CF182E
:102F4000687500A8B8687501489848E8E870034CAF
:102F5000162E686868686868E8E82048CCFA073880
:102F6000B502F5009502B503F5019503E8E86003A5
:102F7000288A2D7A2F48327835612048CCE51EA169
:102F800000950074012048CCE61EB5028100E8E8F7
:102F9000E8E82048CCF71EB5028100E8E8E8E82020
:102FA00048CCF61EB5028100E8E8E8E82048CCFAF3
:102FB0001E207FD52048CCF81E207FD52048CC008D
:102FC000012057D8E8E82048CC004018B500750229
:102FD0009502B50175039503E8E82048CCE51EA1EC
:102FE000009500740118B50075029502B5017503CE
:102FF0009503E8E8B500B40295029400B501B40366
:1030000095039401CACA74007401A93248A94348BF
:1030100038A900F5029502A980F503950348B50289
:103020004818B50075029500B501750348B500480C
:10303000E8E8E8E82048CC06002048CCE51EA100DE
:103040009500740118B50075029502B501750395D8
:1030500003E8E82048CCE51EB5028100E8E8E8E88E
:10306000B500B40295029400B501B4039503940130
:10307000CACAB5029500B503950120BEE6F600D098
:1030800002F601B500B40295029400B501B40395AF
:10309000039401A1009500740120B5D1B500B402DC
:1030A00095029400B501B40395039401CACAB50210
:1030B0009500B50395012048CC240020E9C7209352
:1030C000CA9F31E8E82048CCF81EA100A8F600D03D
:1030D00002F601A10095019400201A2C2048CCFC96
:1030E0001EB500B40295029400B501B40395039493
:1030F00001CACA74007401A93148A97B4838A900E3
:10310000F5029502A980F503950348B5024818B564
:103110000075029500B501750348B50048E8E8E878
:10312000E8CACAB5029500B5039501A100950074DF
:103130000120B5D1B500B40295029400B501B403E5
:103140009503940120952DB500B40295029400B525
:1031500001B4039503940120BEE6F600D002F60107
:103160002041CF18687500A8B8687501489848E8EC
:10317000E870034C2131686868686868E8E82048AE
:10318000CCFA1EA100A8F600D002F601A10095011C
:1031900094002048CCF81E207FD520B6C72832CA1C
:1031A000CAB5029500B50395012048CC2A0020E954
:1031B000C72093CA2532E8E82048CCE61EA1009536
:1031C000007401CACAB5029500B50395012048CC28
:1031D000E51EB5028100E8E8E8E8B500B402950212
:1031E0009400B501B403950394012048CC00FFB5C9
:1031F0000035029502B50135039503E8E818B500DE
:1032000075029502B50175039503E8E82048CC00E6
:103210000A18B50075029502B50175039503E8E833
:1032200020B6C7283220952D2041CF18687500A8F8
:10323000B8687501489848E8E870034C343068680D
:1032400068686868E8E8E8E86003286F2F54322B64
:10325000337835632048CCF71EB5028100E8E8E8F2
:10326000E82048CCF61EB5028100E8E8E8E8B500A1
:10327000B40295029400B501B4039503940120486B
:10328000CC500020B5D120DAD620FACC20F9D020BD
:10329000DAD4B500B40295029400B501B4039503E5
:1032A0009401E8E8B50148B50048E8E82019D7CA14
:1032B000CA68950068950148B500482048CC0600CA
:1032C0002048CCF61EA10095007401202523CACA0F
:1032D00068950068950148B5004820B5D118B5003B
:1032E00075029502B50175039503E8E8B500B402CF
:1032F00095029400B501B403950394012048CC5085
:1033000000CACA68950068950138B502F5009502B3
:10331000B503F5019503E8E82048CC06002048CC29
:10332000F71EA1009500740120252360032849326F
:1033300037333A3378366F20C0E54C373442617307
:103340006963204865616448656164204D4B494963
:103350002048656164204D4B4949494865616420B6
:103360004D4B4956204C696768746E696E67204200
:103370006173696320426F647954696E20426F649F
:1033800079202049726F6E20426F647920537465F2
:10339000656C20426F6479466F7274726573732036
:1033A000204261736963204C6567734661737420C2
:1033B0004C65677320517569636B204C6567734179
:1033C00067696C65204C6567734D757374616E67D2
:1033D00020202042617369632047756E20426C6132
:1033E000737465722020204C617365722020202048
:1033F00020506861736572202020204465617468E4
:103400002052617920426173696320546F6F6C525E
:103410006F636B205069636B20526F636B20447243
:10342000696C6C526F636B20426F7265724C617392
:103430006572204269742003282C33423445347865
:10344000367020C0E50A090A09090A08090A080AAB
:10345000090A0A0709070506090A090A0A090328C9
:10346000373469346C3478367120C0E52A0C303238
:103470000F03285E347C347F3478367220C0E54CEC
:103480000E352B2420426174742020202B242048E8
:103490005020202020202B2420446D672020202035
:1034A0002D2473204D696E6520203173204D696E87
:1034B000652020202B2425204372697420202D2490
:1034C00025204C61766120202D2473204472696C84
:1034D0006C203173204472696C6C20202B242F7374
:1034E0002042617474202B242F7320485020202008
:1034F0004C617661204865616C732D353025204321
:103500006F7374202D35302520436F73742003288A
:10351000713419351C3578367320C0E50705060867
:10352000070808090809070A090903280E3535356F
:10353000383578367420C0E53003011717010B3297
:1035400032300303011703282A35513562357836A6
:103550007520EA072043782044082048CC0B00203F
:10356000462660032846356E35033978367620487E
:10357000CCF01EB5028100E8E8E8E8CACAB50295B9
:1035800000B50395012048CC1900A00020E5E5F026
:103590000330018898E8E8950095012093CA2D38FA
:1035A000201B04205135CACAB5029500B503950108
:1035B00020EA0720967820440820B5D1CACAB5026F
:1035C0009500B50395012048CC120018B50075028E
:1035D0009502B50175039503E8E82048CCE51EB5D2
:1035E000028100E8E8E8E82015CECACAB5049500D3
:1035F000B5059501B500B40295029400B501B40378
:1036000095039401CACAB5029500B50395012048F7
:10361000CC0A002057D8E8E82048CC3D3318B50044
:1036200075029502B50175039503E8E8B500B4028B
:1036300095029400B501B403950394012042341817
:10364000B50075029502B50175039503E8E8A10080
:103650009500740120B5D12048CC040018B5007540
:10366000029502B50175039503E8E8CACA740074AF
:1036700001CACA74007401CACA7400740120693492
:103680002048CC041FA1009500740118B5007502F4
:103690009502B50175039503E8E8A1009500740152
:1036A000207A2F2048CC0F0018B50075029502B57E
:1036B0000175039503E8E82048CC051FA10095009B
:1036C0007401CACA74007401A93848A9234838A9EA
:1036D00000F5029502A980F503950348B502481844
:1036E000B50075029500B501750348B50048E8E8D6
:1036F000E8E8CACAB5049500B50595012048CC1282
:103700000018B50075029502B50175039503E8E848
:103710002048CCE51EB5028100E8E8E8E8CACAB551
:10372000029500B50395012048CC82342048CC0690
:103730001FA100950074012048CC0A002057D8E84A
:10374000E818B50075029502B50175039503E8E820
:103750002019352048CC061FA1009500740118B52A
:103760000075029502B50175039503E8E8A100957F
:1037700000740120B5D12048CC071FA1009500742A
:1037800001CACA740074012035352048CC061FA137
:10379000009500740118B50075029502B501750316
:1037A0009503E8E8A100950074012048CCF01EA123
:1037B00000950074012019D720E9C72093CADF378C
:1037C000B5009502B5019503E8E82048CC0300B5A3
:1037D00000B40295029400B501B40395039401204E
:1037E0007A2F2048CC0A0018B50075029502B50161
:1037F00075039503E8E82048CC081F2048CC061F35
:103800002048CC04002069CD2041CF18687500A85D
:10381000B8687501489848E8E870034CF236686863
:1038200068686868E8E8E8E820B6C703392048CC4B
:10383000190038B502F5009502B503F5019503E8C6
:10384000E82048CC03002057D8E8E820B5D1CACA00
:10385000A9029500740118B50075029502B50175AD
:10386000039503E8E82048CCE51EB5028100E8E8AE
:10387000E8E820EBEC18B50075029502B501750378
:103880009503E8E8CACAB5029500B5039501A10001
:10389000A8F600D002F601A10095019400B500B48D
:1038A0000295029400B501B40395039401CACAA914
:1038B000029500740118B50075029502B5017503F3
:1038C0009503E8E8A1009500740120B5D1CACAA902
:1038D000029500740118B50075029502B5017503D3
:1038E0009503E8E8CACA74007401CACA7400740176
:1038F0002048CC3F002048CCF01EA1009500740168
:10390000207A2F60032863350F39943978376B207C
:1039100048CC09002048CC11002048CCEE002048BB
:10392000CC66002048CCEF1EA10095007401CACAE5
:10393000A90195007401207DCF20E9C72093CA4FCB
:10394000392088C720B50B2086F020B6C79139CA28
:10395000CAA90295007401207DCF20E9C72093CA2F
:1039600070392088C720CC0B2021FE20B6C79139A2
:103970002048CC0300207DCF20E9C72093CA8E3990
:103980002088C720E30B2008F720B6C7913920888C
:10399000C7209E0B6003280439A039A93978376CF9
:1039A00020FA0B205CEF209E0B6003289539B53977
:1039B000BE3978376D20B50B202EED209E0B6003AD
:1039C00028AA39CA39D33978376E20CC0B2018F899
:1039D000209E0B600328BF39DF39E83978376F2024
:1039E000E30B2035F0209E0B600328D439F439F71F
:1039F0003978386420C0E50848DA5AADE1FF48ADAF
:103A0000E2FF48ADE3FF480000A2F09A688DE3FFB3
:103A1000688DE2FF688DE1FF7AFA6828600328E983
:103A200039283A3C3A78386520F439204FC8CACA58
:103A3000740074012048CC9800207FD56003281DB5
:103A40003A483A423C72756ECACAA901950074019F
:103A50002048CC9800207FD520EA0720B278204F5C
:103A60005F20DD63209A6820036A203D8120067A6A
:103A7000208F852043792044082044F020B2F5208F
:103A8000EA07CACA74007401204BA1CACAB50295DC
:103A900000B50395012048CC8000B50035029502A1
:103AA000B50135039503E8E8B5001501F004A90058
:103AB0008002A9FF950095012093CAE13A2048CCE5
:103AC000EF1EA10095007401CACA7400740120E9B8
:103AD000C72093CADE3A20008A20B6C7E13A200FF9
:103AE00098204408CACAB5029500B5039501CACA10
:103AF000A90195007401B50035029502B5013503A1
:103B00009503E8E82093CA0C3B2044F0CACAB502EA
:103B10009500B5039501CACAA90295007401B500C4
:103B200035029502B50135039503E8E82093CA34C0
:103B30003B20B2F5CACAB5029500B50395012048ED
:103B4000CC0800B50035029502B50135039503E8B0
:103B5000E82093CA593B20A039CACAB5029500B5DE
:103B60000395012048CC0400B50035029502B5014B
:103B700035039503E8E82093CA7E3B200F39CACA73
:103B8000B5029500B50395012048CC1000B500356D
:103B9000029502B50135039503E8E82093CAA33BDB
:103BA00020B539CACAB5029500B50395012048CCA5
:103BB0002000B50035029502B50135039503E8E80C
:103BC0002093CAC83B20CA39CACAB5029500B503BA
:103BD00095012048CC4000B50035029502B501356D
:103BE000039503E8E82093CAED3B20DF39CACAB544
:103BF000029500B50395012048CC8000B500350240
:103C00009502B50135039503E8E82093CA183C20D6
:103C1000FA0B2038F3209E0B2048CC0001B500356C
:103C2000029502B50135039503E8E82093CA3F3CAD
:103C3000CACA740074012048CC9800207FD5604C1B
:103C40007F3A60000000000000000000000000005B
:103C50000000000000000000000000000000000064
:103C60000000000000000000000000000000000054
:103C70000000000000000000000000000000000044
:103C80000000000000000000000000000000000034
:103FF00000000000000000000000333532323600BF
:10400000032800000B400E4078316D20C0E51010F1
:1040100010400003400147034809400002400347A5
:10402000034808400003400147024002480840009E
:10403000074002480740000740024807400002408E
:104040000C49024000014002490A4A02490140006D
:10405000014001490C4A0149014000014001490366
:104060004A013F0100034A013F0100024A014901A0
:10407000400001400149034A023F034A023F024A0D
:104080000149014000014001490C4A014901400039
:1040900001400149034A014B084A0149014000011E
:1040A000400149044A054B034A01490140000140CF
:1040B00002490A4A024901400002400C49024000FC
:1040C00003280040CB40CE4078316E20C0E5101070
:1040D0001040001040001040001040000540064114
:1040E00005400003400341044203410340000240F5
:1040F00001410142014106420141014201410240A8
:1041000000014001410242014106420141024201D7
:104110004101400001410342014106420141034285
:1041200001410001410242024106420241024201B4
:10413000410001400241014001410642014101406C
:104140000241014000044002410442024104400097
:10415000054006410540001040001040001040009E
:104160000328C0406B416E4178316F20C0E51010CC
:1041700010400010400010400010400010400003AC
:104180004003430340034304400003400143014410
:104190000143034001430144014304400003400143
:1041A00043014401430340014301440143044000EF
:1041B00003400143014401430340014301440143DF
:1041C0000440000340014301440143034001430113
:1041D00044014304400003400143024401430240C0
:1041E00001430244014303400003400143034401EF
:1041F000430140014303440143024000034005439F
:1042000001400543024000104000104000104000F3
:10421000032860411B421E4278317020C0E5101017
:1042200010400010400010400009400145064000C9
:104230000840034505400007400145024602450489
:104240004000064001450346014505400006400187
:10425000450246034504400005400845034000046C
:104260004003450340044502400003400246014527
:104270000540034502400003400246074001450354
:104280004000104000104000104000104000032883
:10429000104299429C4278317120C0E510101040C4
:1042A000001040001040000940024C05400008404A
:1042B000024C0640000840024C0240014C03400002
:1042C0000740064C0340000640064C0440000540F1
:1042D000054C0640000440054C0740000340054CD7
:1042E0000840000340044C0940000440024C0A40CE
:1042F0000010400010400010400003288E4205438B
:10430000084378317220C0E520202040001240038D
:104310004801470A40001140034803470940001183
:10432000400248024001470A4000104002480E4047
:1043300000104002480E40000B400C490940000AA2
:104340004002490A4A02490840000A4001490C4A11
:1043500001490840000A400149024A0100013F03A7
:104360004A0100013F034A01490840000A4001494F
:10437000024A023F034A023F034A01490840000A39
:104380004001490C4A01490840000A400149084AD5
:10439000014B034A01490840000A400149034A050C
:1043A0004B044A01490840000640014503400249C8
:1043B0000A4A02490840000540034503400C4905EC
:1043C00040024C02400004400145024602450340C1
:1043D0000A410540024C03400003400145034601E9
:1043E0004501400441084204410240024C024001A0
:1043F0004C00034001450246024501410242014191
:104400000A42014102420141064C000240054501B9
:1044100041034201410A42014103420141044C016E
:1044200040000140034502400141034202410A426B
:10443000024103420141014C034000024601450391
:1044400040014102420141014001410A4201410152
:104450004001410242014104400002460540024140
:10446000014501400241084202410140014C024124
:104470000540000C400A410140034C0640000D403D
:104480000343034003430140024C0740000D400139
:10449000430144014303400143014401430A4000F6
:1044A0000D400143014401430340014301440143E2
:1044B0000A40000D40014301440143034001430110
:1044C0004401430A40000D400143014401430340BD
:1044D0000143014401430A40000C400143024401EE
:1044E0004302400143024401430A40000B400143A0
:1044F0000344014301400143034401430A40000BCC
:10450000400543014005430A40000328FA4215458F
:10451000184578317320C0E520202040000C400170
:104520004703481040000B40034703480F40000C6E
:10453000400147024002480F4000104002480E4030
:1045400000104002480E40000B400C490940000A90
:104550004002490A4A02490840000A4001490C4AFF
:1045600001490840000A400149034A013F01000394
:104570004A013F0100024A01490840000A4001493E
:10458000034A023F034A023F024A01490840000A27
:104590004001490C4A01490840000A400149034AC8
:1045A000014B084A01490840000A400149044A05F4
:1045B0004B034A01490840000640014503400249B7
:1045C0000A4A02490840000540034503400C4905DA
:1045D00040024C02400004400145024602450340AF
:1045E0000A410540024C03400003400145034601D7
:1045F0004501400441084204410240024C0240018E
:104600004C0003400145024602450141024201417E
:104610000A42014102420141064C000240054501A7
:1046200041034201410A42014103420141044C015C
:1046300040000140034502400141034202410A4259
:10464000024103420141014C03400002460145037F
:1046500040014102420141014001410A4201410140
:10466000400141024201410440000246054002412E
:10467000014501400241084202410140014C024112
:104680000540000C400A410140034C0640000C402C
:104690000343034003430240024C0740000C400127
:1046A000430144014303400143014401430B4000E3
:1046B0000C400143014401430340014301440143D1
:1046C0000B40000C400143014401430340014301FE
:1046D0004401430B40000C400143014401430340AB
:1046E0000143014401430B40000C400143024401DB
:1046F0004302400143024401430A40000C4001438D
:104700000344014301400143034401430940000CB9
:104710004005430140054309400003280A45254759
:10472000284778317420C0E520202040000B40014C
:104730004D1440000A40014D014E014D0740014D0E
:104740000B40000A40014D024E014D0640014D0B49
:1047500040000940014D044E014D0440024D0B4004
:10476000000840014D064E014D0340014D014F012F
:104770004D0A40000840014D064E014D0240014DDA
:10478000024F014D0A40000840014D064E014D0206
:1047900040014D024F014D0A40000840014D064EB8
:1047A000014D0140014D034F014D0A4000094001F8
:1047B0004D054E014D0140014D034F014D0A400092
:1047C0000940014D054E024D044F014D0340014D7E
:1047D0000640000940014D064E014D054F014D01B7
:1047E00040014D014E024D0440000340034D034083
:1047F000014D064E014D054F024D044E014D034043
:10480000000340014D024F014D0240014D064E0193
:104810004D044F024D054E014D0340000440014D33
:10482000014F024D0140014D064E014D034F014D18
:10483000074E014D0340000440014D034F014D015F
:1048400040014D054E014D014F024D074E014D04F3
:1048500040000540014D034F024D054E024D094EEB
:10486000014D0440000540014D044F014D054E012E
:104870004D0A4E014D0440000640014D034F014DCD
:10488000054E014D094E014D0540000640014D0306
:104890004F014D064E014D074E014D0640000740A9
:1048A000014D024F014D064E014D064E014D074090
:1048B000000740014D034F014D054E014D054E01CE
:1048C0004D0840000840014D024F044D024E014D7D
:1048D000044E014D0940000840014D024F014D02B8
:1048E00050014D024E034D014E024D09400007405C
:1048F000044D0350044D0150054D08400006400191
:104900004D0850024D0650024D0740000540014D34
:1049100006500151085001510250024D0640000559
:1049200040014D015001521150014D06400005401B
:10493000014D0A5001520850014D06400005400843
:104940004D0650074D0640000C40074D0D4000201D
:10495000400003281A475D49604978317520C0E559
:1049600020202053000F53015410530002530155CF
:104970001D530020530017530155085300205300C6
:10498000055301541A53001F530154000B53015592
:1049900014530020530020530017530154085300B0
:1049A000115301550E5300035301551C5300195365
:1049B00001550653001D5301550253002053000AB0
:1049C0005301541553002053002053000D5301553B
:1049D0000C530154055300135301540C530020533E
:1049E0000001551F5300045301541B53001653017B
:1049F000550953000C5301540F5301550353002024
:104A00005300205300205300155301540A53000350
:104A10005301551C530003285249214A244A783235
:104A20007120C0E5000549154A2A482A470C4B3F2A
:104A30000328164A3B4A3E4A78327220C0E50005F8
:104A400049154A3A483A47304B3F0328304A554ABD
:104A5000584A78327320C0E5000549154A35483573
:104A6000470F4B3F03284A4A6F4A724A78327420F4
:104A7000C0E5000549154A20482047324B3F03282E
:104A8000644A894A8C4A78327520C0E5000549306D
:104A90004A3F483F47304B0303287E4AA34AA64A71
:104AA00078327620C0E501024115422A0328984A4F
:104AB000B74ABA4A78327720C0E501024115422B45
:104AC0000328AC4ACB4ACE4A78327820C0E50102AE
:104AD000411542170328C04ADF4AE24A783279205A
:104AE000C0E50102411542020328D44AF34AF64ABE
:104AF00078327A20C0E501024103423F0328E84AA8
:104B0000074B0A4B78333020C0E502024315442A94
:104B10000328FC4A1B4B1E4B78333120C0E50202B0
:104B20004315442E0328104B2F4B324B7833322041
:104B3000C0E502024315441D0328244B434B464B5A
:104B400078333320C0E50202431544080328384B6C
:104B5000574B5A4B78333420C0E50202430C443F94
:104B600003284C4B6B4B6E4B78333520C0E503026A
:104B70004515462A0328604B7F4B824B78333620FD
:104B8000C0E503024515463B0328744B934B964BF7
:104B900078333720C0E50302451546370328884B94
:104BA000A74BAA4B78333820C0E5030245154622AF
:104BB00003289C4BBB4BBE4B78333920C0E5030226
:104BC0004532463F0328B04BCF4BD24B7833612060
:104BD000C0E504014C2A0328C44BE14BE44B783375
:104BE0006220C0E504014C2F0328D64BF34BF64B53
:104BF00078336320C0E504014C1F0328E84B054CC3
:104C0000084C78336420C0E504014C0A0328FA4BB1
:104C1000174C1A4C78336520C0E504014C0F03286B
:104C20000C4C294C2C4C78336620C0E50503533BD3
:104C30005420550203281E4C3F4C424C78336720C9
:104C4000C0E50503533B540255080328344C554C2A
:104C5000584C78336820C0E50503533B5408550A87
:104C600003284A4C6B4C6E4C78336920C0E5050331
:104C7000533B540A55200328604C814C844C7833B4
:104C80006A20C0E506055021522051024E174F2BD5
:104C90000328764C9B4C9E4C78336B20C0E5060570
:104CA0005021522051024E1F4F2F0328904CB54CDB
:104CB000B84C78336C20C0E50605502152205102D3
:104CC0004E354F3A0328AA4CCF4CD24C78336D2046
:104CD000C0E505035321543255200328C44CE54C4C
:104CE000E84C78336E20C0E50503530B5402550F92
:104CF0000328DA4CFB4CFE4C78336F20C0E52C4C7B
:104D0000424C584C6E4CD24CE84C844C9E4CB84CA7
:104D10000328F04C1B4D1E4D78337020C0E5244A0B
:104D20003E4A584A724A8C4AA64ABA4ACE4AE24A8F
:104D3000F64A0A4B1E4B324B464B5A4B6E4B824B3C
:104D4000964BAA4BBE4BD24BE44BF64B084C1A4C3D
:104D50000328104D5B4D5E4D78337920C0E500008F
:104D60000000000000000000000000000000000043
:104D70000000000000000000000000000000000033
:104D80000000000000000000000000000000000023
:104D90000000000000000000000000000000000013
:104DA0000000000000000000000000000000000003
:104DB00000000000000000000000000000000000F3
:104DC00000000000000000000000000000000000E3
:104DD0000000000000000328504DE14DFD4D7833E8
:104DE0007A2048CC03002057D8E8E8205B4D18B55E
:104DF0000075029502B50175039503E8E860032884
:104E0000D64D094E0C4E78343020E14D600328FE1B
:104E10004D184E244E78343120E14D20BEE6F60088
:104E2000D002F6016003280D4E304E4A4E783432DF
:104E300020E14DCACAA9029500740118B500750297
:104E40009502B50175039503E8E8600328254E56E1
:104E50004E594E78343320C0E500000000000000B9
:104E60000000000000000000000000000000000042
:104E70000000000000000000000000000000000032
:104E80000000000000000000000000000000000022
:104E90000000000000000000000000000000000012
:104EA0000000000000000000000000000000000002
:104EB00000000000000000000000000000000000F2
:104EC00000000000000000000000000000000000E2
:104ED00000000000000000000000000000000000D2
:104EE00000000000000000000000000000000000C2
:104EF00000000000000000000003284B4E044F207B
:104F00004F7834342048CC04002057D8E8E82056A5
:104F10004E18B50075029502B50175039503E8E8D2
:104F2000600328F94E2C4F2F4F78343520044F6002
:104F30000328214F3B4F474F78343620044F20BE83
:104F4000E6F600D002F601600328304F534F6D4F54
:104F500078343720044FCACAA9029500740118B5E5
:104F60000075029502B50175039503E8E860032812
:104F7000484F794F904F78343820044F2048CC0365
:104F80000018B50075029502B50175039503E8E8B0
:104F90006003286E4F9C4F9F4F78343920C0E50046
:104FA0000000000000000000000000000000000001
:104FB00000000000000000000000000000000000F1
:104FC00000000000000000000000000000000000E1
:104FD00000000000000000000000000000000000D1
:1052B00000000000000000000000000000000003EB
:1052C00028914FCA52CD5278346120C0E5000000C9
:1052D00000000000000000000000000000000000CE
:1052E00000000000000000000000000000000000BE
:1052F00000000000000000000000000000000000AE
:10530000000000000000000000000000000000009D
:1055E000000000000000000000000000000328BFD1
:1055F00052F855FB5578346220C0E50000000000E9
:10560000000000000000000000000000000000009A
:10561000000000000000000000000000000000008A
:10562000000000000000000000000000000000007A
:10563000000000000000000000000000000000006A
:1059100000000000000000000000000328ED5526F4
:1059200059B65B78346CCACAB5049500B5059501C3
:105930002048CC0900207DCF20E9C72093CA4B59CD
:105940002088C7201B4D20B6C797592048CC0A0095
:10595000207DCF20E9C72093CA66592088C7201B25
:105960004D20B6C797592048CC0B00207DCF20E9A9
:10597000C72093CA81592088C7201B4D20B6C797DE
:105980005920FB4CB500B40295029400B501B40354
:10599000950394012088C7B500B40295029400B520
:1059A00001B4039503940120BEE61600360118B534
:1059B0000075029502B50175039503E8E8A100A8FA
:1059C000F600D002F601A1009501940020BEE6F693
:1059D00000D002F601CACAB5029500B5039501A12F
:1059E0000095007401B500B40295029400B501B4AD
:1059F000039503940120BEE6F600D002F60120B51F
:105A0000D120EE23202224B5009502B5019503E8AC
:105A1000E8CACA74007401A95B48A9B24838A90051
:105A2000F5029502A980F503950348B5024818B51B
:105A30000075029500B501750348B50048E8E8E82F
:105A4000E8CACAB5029500B5039501A10095007496
:105A500001B500B40295029400B501B40395039416
:105A60000120BEE6F600D002F601B500B4029502B0
:105A70009400B501B403950394012093CA975B2069
:105A8000B5D1CACAB5029500B5039501B50148B5AF
:105A90000048E8E82015CECACA689500689501CA92
:105AA000CA74007401A95B48A98A4838A900F502A4
:105AB0009502A980F503950348B5024818B500750D
:105AC000029500B501750348B50048E8E8E8E8200C
:105AD00019D7A10095007401B500B4029502940095
:105AE000B501B40395039401CACA862ABA38BD0128
:105AF00001FD0301A8BD0201FD0401A62A95019440
:105B00000020BEE61600360118B50075029502B5F4
:105B10000175039503E8E8CACAB5029500B5039577
:105B200001B50148B50048E8E8A1009500740120DE
:105B3000E9C72093CA655BCACA68950068950120C9
:105B4000BEE6F600D002F601A10095007401CACAB3
:105B5000B5049500B5059501B5028100E8E8E8E8CF
:105B60006868686860CACA689500689501E8E820B6
:105B700041CF18687500A8B8687501489848E8E8EA
:105B800070034CCF5A68686868686820BEE6F60003
:105B9000D002F6014C415A2041CF18687500A8B8D0
:105BA000687501489848E8E870034C415A6868688D
:105BB000686868200A046003281B59C25BE15B78AF
:105BC00034742048CC00012057D8E8E818B5007597
:105BD000029502B50175039503E8E8A100950074EC
:105BE00001600328B75BED5B435F7834752048CCD8
:105BF0000500207807CACAB5049500B5059501CA05
:105C0000CA740074012048CC400020B5D12046263B
:105C100020EE23B500B40295029400B501B40395BB
:105C200003940120EE2320222420B5D1E8E8B50119
:105C300048B50048E8E8B500B40295029400B50103
:105C4000B403950394012019D7B5028100E8E8E870
:105C5000E820BEE6F600D002F601CACA68950068E0
:105C6000950148B50048CACAB5049500B505950127
:105C7000B5028100E8E8E8E820BEE6F600D002F6CA
:105C8000012048CC0080CACA689500689501CACA3C
:105C900074007401A95F48A9344838A900F5029539
:105CA00002A980F503950348B5024818B5007502AE
:105CB0009500B501750348B50048E8E8E8E820B567
:105CC000D1CACAB5029500B5039501B50148B50022
:105CD00048E8E8CACAB5049500B5059501CACA687E
:105CE000950068950148B50048B500D002D601D6A8
:105CF0000020C25BCACA74007401CACA68950068F1
:105D00009501CACA74007401B500B40295029400EA
:105D1000B501B40395039401B500D002D601D600B5
:105D2000A95E48A9644838A900F5029502A980F542
:105D300003950348B5024818B50075029500B501F2
:105D4000750348B50048E8E8E8E8206E042015CE61
:105D500020E204B500B40295029400B501B40395A5
:105D600003940120B5D12019D7CACA862ABA38BDF2
:105D70000101FD0301A8BD0201FD0401A62A950150
:105D8000940020C25B20E9C72093CABD5D20B5D135
:105D900020BEE6F600D002F6012015CE2015CEB5C5
:105DA00000B40295029400B501B403950394012058
:105DB0006E0420B5D120E20420B6C7475E206E04F1
:105DC000CACAB5049500B5059501B5028100E8E899
:105DD000E8E820BEE6F600D002F601CACA689500DF
:105DE000689501CACAB5049500B5059501B502814B
:105DF00000E8E8E8E820BEE6F600D002F601CACAEC
:105E0000689500689501CACAB5029500B503950169
:105E1000CACA862ABA38BD0101FD0301A8BD020124
:105E2000FD0401A62A9501940020C25BB50148B586
:105E30000048E8E820B5D1CACA689500689501CA4B
:105E4000CAA901950074012048CCFFFF18687500AD
:105E5000A8B8687501489848E8E870034C4A5D683E
:105E60006868686868CACAB5029500B5039501B547
:105E7000001501F004A9008002A9FF9500950120FA
:105E800093CA905EE8E8E8E820B5D120B6C7EC5E9A
:105E9000B500B40295029400B501B40395039401D2
:105EA000206E0420B5D1CACA689500689501CACA97
:105EB000B5049500B5059501B5028100E8E8E8E86C
:105EC00020BEE6F600D002F601CACA6895006895C1
:105ED00001CACAB5049500B5059501B5028100E86F
:105EE000E8E8E820BEE6F600D002F601CACA74006F
:105EF0007401CACAB5049500B5059501B5028100C3
:105F0000E8E8E8E820BEE6F600D002F60120B5D1C8
:105F100020BEE6F600D002F6012041CF18687500D9
:105F2000A8B8687501489848E8E870034CBE5C68FA
:105F30006868686868200A04CACAA90295007401E2
:105F4000207807600328E25B4F5F7B60783476201F
:105F500048CC1500CACA7400740120FD24CACA7452
:105F6000007401CACAA9019500740120ED5BCACA78
:105F7000A90195007401CACAA9029500740120ED17
:105F80005BCACAA902950074012048CC030020ED29
:105F90005B2048CC15002048CC040020FD2420487C
:105FA000CC15002048CC050020FD242048CC14004E
:105FB0002048CC060020FD242048CC14002048CCEA
:105FC000080020FD242048CC14002048CC070020E5
:105FD000FD24CACA74007401CACAB5029500B5038B
:105FE0009501202659CACAA90195007401CACAB5EB
:105FF000029500B5039501202659CACAA902950049
:106000007401CACAB5029500B5039501202659202E
:1060100048CC0300CACAB5029500B50395012026F5
:10602000592048CC0400CACAB5029500B5039501B1
:106030002026592048CC0500CACAB5029500B503F0
:1060400095012026592048CC0600CACAB502950001
:10605000B50395012026592048CC0800CACAB502CC
:106060009500B50395012026592048CC0700CACADF
:10607000B5029500B5039501202659600328445FB9
:1060800087603061783477202807A100A8F600D017
:1060900002F601A10095019400CACAB5029500B5A7
:1060A0000395012048CC0700B500290FF008A81679
:1060B00002360388D0F9E8E8B50055029502B5012B
:1060C00055039503E8E8CACAB5029500B5039501E2
:1060D0002048CC0900B500290FF008A85603760225
:1060E00088D0F9E8E8B50055029502B50155039549
:1060F00003E8E8CACAB5029500B50395012048CC6B
:106100000800B500290FF008A81602360388D0F958
:10611000E8E8B50055029502B50155039503E8E896
:10612000CACAB5029500B5039501202807207FD57E
:106130006003287C603C614D61783478208760CAB8
:10614000CA7400740120B5D12015D8E8E86003288E
:10615000316159616961783479208760CACAA902BE
:10616000950074012026D4E8E86003284E6175612B
:10617000D16378347A2048CC2800203C612048CC78
:106180001400203C612048CC0500B500D002D601A7
:10619000D600203C6120BEE6F600D002F601204881
:1061A000CC0500B500D002D601D600203C6120BE4F
:1061B000E6F600D002F6012059612093CAC9612099
:1061C00048CCFFFF20B6C7D161CACAA901950074A7
:1061D000012059612093CAE3612048CCFFFF20B61B
:1061E000C7EB61CACAA90195007401206ED7CACA5B
:1061F00074007401A96348A9CA4838A900F502953A
:1062000002A980F503950348B5024818B500750248
:106210009500B501750348B50048E8E8E8E8CACA42
:10622000B5029500B5039501CACA74007401A9634B
:1062300048A95D4838A900F5029502A980F50395A3
:106240000348B5024818B50075029500B5017503FD
:1062500048B50048E8E8E8E8209C042019D7CACAF5
:10626000740074012048CC140020E7D8B500B402B3
:1062700095029400B501B40395039401CACA740051
:1062800074012048CC280020E7D8B50035029502DB
:10629000B50135039503E8E82093CA0463CACAB57B
:1062A000049500B5059501209C4F18B50075029521
:1062B00002B50175039503E8E8CACAB5049500B5AF
:1062C0000595012048CC28002057D8E8E818B500EB
:1062D00075029502B50175039503E8E8B50148B567
:1062E0000048E8E820B5D1CACAB5029500B50395C3
:1062F00001CACA689500689501B5028100E8E8E81E
:10630000E82015CEB500B40295029400B501B4039F
:1063100095039401CACA68950068950148B500487C
:1063200018B50075029502B50175039503E8E8B547
:1063300000B40295029400B501B4039503940120C2
:1063400010052041CF18687500A8B86875014898F5
:1063500048E8E870034C5862686868686868B50186
:1063600048B50048E8E8B500B40295029400B501CC
:10637000B40395039401206E04CACA689500689519
:106380000148B5004818B50075029502B5017503BE
:106390009503E8E820E204B500B40295029400B544
:1063A00001B40395039401CACA6895006895012059
:1063B00041CF18687500A8B8687501489848E8E8A2
:1063C00070034C1E62686868686868200A04200AC6
:1063D000046003286A61DD638566783530209C4F50
:1063E0002048CC14002048CC28002057D8E8E8CA20
:1063F000CA740074012005C82048CC1400CACA74AD
:10640000007401A96448A9504838A900F502950212
:10641000A980F503950348B5024818B500750295A3
:1064200000B501750348B50048E8E8E8E82048CC25
:1064300005002075612041CF18687500A8B86875FF
:1064400001489848E8E870034C2D646868686868FB
:10645000682048CC3C00CACA74007401A96448A9E9
:10646000A94838A900F5029502A980F503950348CB
:10647000B5024818B50075029500B501750348B519
:106480000048E8E8E8E82048CC0400207561204195
:10649000CF18687500A8B8687501489848E8E87092
:1064A000034C8664686868686868209C4F2048CC04
:1064B0001400CACA74007401A96548A98F4838A994
:1064C00000F5029502A980F503950348B502481826
:1064D000B50075029500B501750348B50048E8E8B8
:1064E000E8E82048CC2800CACA74007401A96548AD
:1064F000A9734838A900F5029502A980F503950310
:1065000048B5024818B50075029500B501750348F5
:10651000B50048E8E8E8E8CACAB5029500B50395B1
:1065200001A10095007401CACA7400740120E9C772
:106530002093CA4F652048CC0400203C61CACAB5EC
:10654000049500B5059501B5028100E8E8E8E8206A
:10655000BEE6F600D002F6012041CF18687500A80B
:10656000B8687501489848E8E870034C1765686892
:10657000686868682041CF18687500A8B868750118
:10658000489848E8E870034CE2646868686868689E
:10659000E8E8CACA74007401209C4FCACAA90195D0
:1065A00000740118B50075029502B50175039503D5
:1065B000E8E8CACAA901950074012048CC28002047
:1065C00057D8E8E818B50075029502B5017503952E
:1065D00003E8E8B5028100E8E8E8E82048CC0600D6
:1065E0002048CC1400CACAA90195007401B500293D
:1065F0000FF008A85603760288D0F9E8E8CACAB5B1
:10660000029500B5039501203C6118B5007502950F
:1066100002B50175039503E8E82048CC280020570F
:10662000D8E8E82048CC2800CACAA901950074011E
:10663000B500290FF008A85603760288D0F9E8E8DB
:10664000CACAB5029500B5039501203C6118B50092
:1066500075029502B50175039503E8E818B5007554
:10666000029502B50175039503E8E8209C4F18B523
:106670000075029502B50175039503E8E8B502813E
:1066800000E8E8E8E8600328D2639166CA667835D6
:10669000312048CC28002057D8E8E820F85518B514
:1066A0000075029502B50175039503E8E818B50079
:1066B00075029502B50175039503E8E8A100950000
:1066C00074012048CCFF0020F7CD6003288666D6F1
:1066D000660F677835322048CC28002057D8E8E884
:1066E00020CA5218B50075029502B50175039503CD
:1066F000E8E818B50075029502B50175039503E841
:10670000E8A100950074012048CCFF0020F7CD607F
:106710000328CB661B678E687835332019D7CACA21
:10672000A90195007401A1009500740120E9C7B585
:1067300000B40295029400B501B40395039401CA14
:10674000CAA90195007401A1009500740120E9C750
:10675000B50035029502B50135039503E8E8A9FFB8
:1067600055009500A9FF55019501B50148B50048B0
:10677000E8E82019D7209166A9FF55009500A9FFE8
:1067800055019501B50148B50048E8E82019D72022
:1067900048CC28002057D8E8E8209C4F18B5007551
:1067A000029502B50175039503E8E818B500750276
:1067B0009502B50175039503E8E8A1009500740101
:1067C000CACAB5029500B5039501CACA740074011E
:1067D00020E9C7B500B40295029400B501B4039551
:1067E000039401CACAB5029500B5039501CACAA9A6
:1067F000019500740120E9C7B500B4029502940028
:10680000B501B40395039401CACAB5029500B50356
:106810009501CACAA9029500740120E9C7B500B460
:106820000295029400B501B403950394012048CC6D
:10683000030020E9C7B500B40295029400B501B485
:106840000395039401B50015029502B50115039552
:1068500003E8E8B50015029502B50115039503E8B4
:10686000E8B50015029502B50115039503E8E82087
:10687000E204B50035029502B50135039503E8E859
:10688000B50035029502B50135039503E8E86003CC
:106890002810679A68F76978353420F8552048CC75
:1068A00020032048CCFF002005C82048CC2800CA7F
:1068B000CA74007401A96948A9F64838A900F5020C
:1068C0009502A980F503950348B5024818B50075EF
:1068D000029500B501750348B50048E8E8E8E820EE
:1068E00048CC2800203C612048CC1400203C61208A
:1068F0001B672093CAD4692019D7CACA862ABA3816
:10690000BD0101FD0301A8BD0201FD0401A62A95F8
:1069100001940020184EB5028100E8E8E8E8CACAF0
:10692000862ABA38BD0101FD0301A8BD0201FD049C
:1069300001A62A9501940020094EB5028100E8E8DD
:10694000E8E82048CCFFFFCACA862ABA38BD010150
:10695000FD0301A8BD0201FD0401A62A95019400D2
:1069600020304EB5028100E8E8E8E82048CC280055
:106970002057D8E8E818B50075029502B5017503EF
:106980009503E8E820F85518B50075029502B501A1
:1069900075039503E8E8CACA862ABA38BD0101FD25
:1069A0000301A8BD0201FD0401A62A95019400B5CA
:1069B00000B40295029400B501B40395039401B5A7
:1069C000028100E8E8E8E8CACAA90195007401203C
:1069D000B6C7DE69E8E8E8E8CACA74007401186856
:1069E0007500A8B8687501489848E8E870034CDF5E
:1069F000686868686868686003288F68036ABC6BA9
:106A000078353520CA522048CC20032048CCFF00DE
:106A10002005C82048CC2800CACA74007401A96B9C
:106A200048A9BB4838A900F5029502A980F503954D
:106A30000348B5024818B50075029500B501750305
:106A400048B50048E8E8E8E82048CC2800203C6148
:106A50002048CC1400203C61201B67B50148B500DC
:106A600048E8E82019D720D666A9FF55009500A967
:106A7000FF55019501CACA689500689501B50035B2
:106A8000029502B50135039503E8E82093CA996B96
:106A90002019D7CACA862ABA38BD0101FD0301A848
:106AA000BD0201FD0401A62A95019400203B4FB5CB
:106AB000028100E8E8E8E8CACA862ABA38BD0101BE
:106AC000FD0301A8BD0201FD0401A62A9501940061
:106AD000202C4FB5028100E8E8E8E82048CCFFFF11
:106AE000CACA862ABA38BD0101FD0301A8BD020148
:106AF000FD0401A62A9501940020534FB5028100A0
:106B0000E8E8E8E82048CC0300203C61CACA862AAD
:106B1000BA38BD0101FD0301A8BD0201FD0401A6B3
:106B20002A9501940020794FB5028100E8E8E8E851
:106B30002048CC28002057D8E8E818B50075029501
:106B400002B50175039503E8E820CA5218B500752F
:106B5000029502B50175039503E8E8CACA862ABA08
:106B600038BD0101FD0301A8BD0201FD0401A62AF3
:106B700095019400B500B40295029400B501B403E8
:106B800095039401B5028100E8E8E8E8CACAA901C2
:106B90009500740120B6C7A36BE8E8E8E8CACA7498
:106BA00000740118687500A8B8687501489848E82D
:106BB000E870034C486A686868686868600328F889
:106BC00069C86BCB6B78353620C0E517351F0328B5
:106BD000BD6BD96B26707835372048CCC41EA10018
:106BE000950074012048CCC61EA1009500740118C0
:106BF000B50075029502B50175039503E8E82048D4
:106C0000CCC51EA100950074012048CCC71EA10070
:106C10009500740118B50075029502B501750395CC
:106C200003E8E8CACA740074012048CCE11EB5022A
